:020000040000fa
:080000000002040000000000f2
:020000040000fa
:0400080020030000d1
:020000040000fa
:04000c0020030000cd
:020000040000fa
:0400100020030000c9
:020000040000fa
:0400140020030000c5
:020000040000fa
:0400180020030000c1
:020000040000fa
:04001c0020030000bd
:020000040000fa
:0400200020030000b9
:020000040000fa
:0400240020030000b5
:020000040000fa
:0400280020030000b1
:020000040000fa
:04002c0020030000ad
:020000040000fa
:0400300020030000a9
:020000040000fa
:0400340020030000a5
:020000040000fa
:0400380020030000a1
:020000040000fa
:04003c00200300009d
:020000040000fa
:040040002003000099
:020000040000fa
:04004400fa020000bc
:020000040000fa
:040048002003000091
:020000040000fa
:04004c00200300008d
:020000040000fa
:040050002003000089
:020000040000fa
:040054002003000085
:020000040000fa
:040058002003000081
:020000040000fa
:04005c00200300007d
:020000040000fa
:040060002003000079
:020000040000fa
:040064002003000075
:020000040000fa
:040068002003000071
:020000040000fa
:04006c00200300006d
:020000040000fa
:040070002003000069
:020000040000fa
:040074002003000065
:020000040000fa
:040078002003000061
:020000040000fa
:04007c00200300005d
:020000040000fa
:040080002003000059
:020000040000fa
:040084002003000055
:020000040000fa
:040088002003000051
:020000040000fa
:04008c00200300004d
:020000040000fa
:040090002003000049
:020000040000fa
:040094002003000045
:020000040000fa
:040098002003000041
:020000040000fa
:04009c00200300003d
:020000040000fa
:0400a0002003000039
:020000040000fa
:0400a4002003000035
:020000040000fa
:0400a8002003000031
:020000040000fa
:0400ac00200300002d
:020000040000fa
:0400b0002003000029
:020000040000fa
:0400b4002003000025
:020000040000fa
:0400b8002003000021
:020000040000fa
:0400bc00200300001d
:020000040000fa
:0400c0002003000019
:020000040000fa
:0400c4002003000015
:020000040000fa
:0400c8002003000011
:020000040000fa
:0400cc00200300000d
:020000040000fa
:0400d0002003000009
:020000040000fa
:0400d4002003000005
:020000040000fa
:0400d8002003000001
:020000040000fa
:0400dc0020030000fd
:020000040000fa
:0400e00020030000f9
:020000040000fa
:0400e40020030000f5
:020000040000fa
:0400e80020030000f1
:020000040000fa
:0400ec0020030000ed
:020000040000fa
:0400f00020030000e9
:020000040000fa
:0400f40020030000e5
:020000040000fa
:0400f80020030000e1
:020000040000fa
:0400fc0020030000dd
:020000040000fa
:0401000020030000d8
:020000040000fa
:0401040020030000d4
:020000040000fa
:0401080020030000d0
:020000040000fa
:04010c0020030000cc
:020000040000fa
:0401100020030000c8
:020000040000fa
:0401140020030000c4
:020000040000fa
:0401180020030000c0
:020000040000fa
:04011c0020030000bc
:020000040000fa
:0401200020030000b8
:020000040000fa
:0401240020030000b4
:020000040000fa
:0401280020030000b0
:020000040000fa
:04012c0020030000ac
:020000040000fa
:0401300020030000a8
:020000040000fa
:0401340020030000a4
:020000040000fa
:0401380020030000a0
:020000040000fa
:04013c00200300009c
:020000040000fa
:040140002003000098
:020000040000fa
:040144002003000094
:020000040000fa
:040148002003000090
:020000040000fa
:04014c00200300008c
:020000040000fa
:040150002003000088
:020000040000fa
:040154002003000084
:020000040000fa
:040158002003000080
:020000040000fa
:04015c00200300007c
:020000040000fa
:040160002003000078
:020000040000fa
:040164002003000074
:020000040000fa
:040168002003000070
:020000040000fa
:04016c00200300006c
:020000040000fa
:040170002003000068
:020000040000fa
:040174002003000064
:020000040000fa
:040178002003000060
:020000040000fa
:04017c00200300005c
:020000040000fa
:040180002003000058
:020000040000fa
:040184002003000054
:020000040000fa
:040188002003000050
:020000040000fa
:04018c00200300004c
:020000040000fa
:040190002003000048
:020000040000fa
:040194002003000044
:020000040000fa
:040198002003000040
:020000040000fa
:04019c00200300003c
:020000040000fa
:0401a0002003000038
:020000040000fa
:0401a4002003000034
:020000040000fa
:0401a8002003000030
:020000040000fa
:0401ac00200300002c
:020000040000fa
:0401b0002003000028
:020000040000fa
:0401b4002003000024
:020000040000fa
:0401b8002003000020
:020000040000fa
:0401bc00200300001c
:020000040000fa
:0401c0002003000018
:020000040000fa
:0401c4002003000014
:020000040000fa
:0401c8002003000010
:020000040000fa
:0401cc00200300000c
:020000040000fa
:0401d0002003000008
:020000040000fa
:0401d4002003000004
:020000040000fa
:0401d8002003000000
:020000040000fa
:0401dc0020030000fc
:020000040000fa
:0401e00020030000f8
:020000040000fa
:0401e40020030000f4
:020000040000fa
:0401e80020030000f0
:020000040000fa
:0401ec0020030000ec
:020000040000fa
:0401f00020030000e8
:020000040000fa
:0401f40020030000e4
:020000040000fa
:0401f80020030000e0
:020000040000fa
:0401fc0020030000dc
:020000040000fa
:0402000020030000d7
:020000040000fa
:0402040020030000d3
:020000040000fa
:0402080020030000cf
:020000040000fa
:04020c0020030000cb
:020000040000fa
:0402100020030000c7
:020000040000fa
:0402140020030000c3
:020000040000fa
:0402180020030000bf
:020000040000fa
:04021c0020030000bb
:020000040000fa
:0402200020030000b7
:020000040000fa
:0402240020030000b3
:020000040000fa
:0402280020030000af
:020000040000fa
:04022c0020030000ab
:020000040000fa
:0402300020030000a7
:020000040000fa
:0402340020030000a3
:020000040000fa
:04023800200300009f
:020000040000fa
:04023c00200300009b
:020000040000fa
:040240002003000097
:020000040000fa
:040244002003000093
:020000040000fa
:04024800200300008f
:020000040000fa
:04024c00200300008b
:020000040000fa
:040250002003000087
:020000040000fa
:040254002003000083
:020000040000fa
:04025800200300007f
:020000040000fa
:04025c00200300007b
:020000040000fa
:040260002003000077
:020000040000fa
:040264002003000073
:020000040000fa
:100400000f0021000eff2d000e01880000000000eb
:10041000000020000000e000020032000001200087
:100420002002880014000700870007000000e00099
:1004300003003a0000002000010020000200370005
:100440000000200001002000810f70000100320038
:100450000f000700000020000000e0000200320052
:10046000000002000000000068040200000000001c
:100470000040da000000fe00200020000000e00044
:1004800002003200100020009001880000000600e9
:10049000a1028800800478000000eb001f003700f4
:1004a000e284440054a0b4009905ba00e2844400f8
:1004b00054a0b4009906ba00e284440054a0b400e9
:1004c0000006eb00476fde00fd07b200ae018800ba
:1004d000636ce10003003a000ad801000000eb0061
:1004e0000e003700606ce10008003a00004deb00a0
:1004f0000a05e800020039003420ec000af0a000f0
:100500008b05e900f9ff3e00040037006168e10057
:10051000010032000086eb000b00070019c7ba008b
:100520000e04e0001905ba0003003a000a00e000da
:10053000dbff3a0000000600fe07b200ae028800b2
:100540008a047800f5ff37000cd0a300e20f4d00bd
:100550001c003b0089027800354dba000a05e8000e
:10056000020039003420ec000af0a0008b05e900fd
:100570000f003200254dba000a05e80002003900dc
:100580003420ec000af0a0008b05e90008003200de
:100590000c00e0000600320015cdba000a05e800a4
:1005a000020039003420ec000af0a0008b05e900bd
:1005b0008984e80054a0b4000b00e000e2ff3a0098
:1005c000000006009902ba00055d78008b05e9007d
:1005d000f7ff3200c82ade00055d78008b05e900d0
:1005e000f3ff32000c00e000f1ff320019ddba0029
:1005f000eeff3700801f78000200fa0010738000c1
:100600004900de0061406000004f78001e40780025
:10061000e14f500002003a00652ea90004003700a7
:100620001e4078000004e00001003a00652ea8009a
:1006300000e8a9000080fa004f00780000400600a2
:0c0640000040da000000fe000000050091
:020000040000fa
:10064c000a00fa00404798003207980043079800c8
:10065c003e019000ce019000800c20000100200093
:10066c00800f5100818f59000200360010002000cd
:10067c002e003700ce009000009421008089b90034
:10068c003e009000e100b90000014100be00900066
:10069c00009421000008b80001014100820078009c
:1006ac004809dd004800de0000007100c808de00cb
:1006bc00008fbe004e4090000080fb00e10f500008
:1006cc0003003200e20f50000b0032001400370020
:1006dc000021ef001e007800100888000068a900b7
:1006ec002108800000032000010070002008880011
:1006fc0005e1a8000c0037000621ef001e00780071
:10070c006008880000e8a900210880000003200090
:10071c00010070002008880005e1a80002003700e5
:10072c0010002000010037000000eb000080fa00f0
:10073c00000006000200fa00004f78001e80fb004b
:10074c00e10f500003003200e20f500008003200ad
:10075c000f003700000000000040800068006000bf
:10076c000000e000fcff32000068a9000800370020
:10077c0000000000014080000008200000806000a4
:10078c000000e000fbff320000e8a90000000000c0
:10079c000080fa00000006000800fa0020479800cc
:1007ac0022079800330798002e019000be0190009c
:1007bc00800c200001002000800f5100818f590017
:1007cc0002003600100020003c003700be009000f4
:1007dc00009421008089b9002e009000e100b9003e
:1007ec0000014100ae009000009421000008b80008
:1007fc0001014100820078004809dd004800de005c
:10080c0000007100c808de00000f78002e40900038
:10081c000080fb00e10f500003003200e20f50009b
:10082c0011003200220037000021ef009e007800fa
:10083c00110888000068a90021088000000320002e
:10084c00010070002008880001428000f0ff2800a1
:10085c000080600000c0a000004288002068a80052
:10086c0005e1a8001400370011e1a90010c1a9008e
:10087c0081088000000320000100700080088800bf
:10088c000621ef001e0178006208880011428000ea
:10089c00f0ff28000080600000c0a000104288001b
:1008ac0000e8a90020e8a80011e1a8000200370028
:1008bc0010002000010037000000eb000080fa005f
:1008cc00000006000000fa001a000700820c20004d
:1008dc000300200010c0b30059ff0700820c200059
:1008ec000300200020c0b30055ff0700820c20003d
:1008fc000300200020c0b300a7ff07001070800089
:10090c00610060000000e00002003200040ea9004b
:10091c000500370010708000610060000000e000ee
:10092c0001003a00040ea80010c0b30081ff0700bc
:10093c00f2ff37000000fa006e2eef00707380009b
:10094c007072880070728000f0718800f071800005
:10095c007071880070718000f0708800f0708000f9
:10096c0070708800000ea900612ea900040ea8006a
:0c097c00652ea8000080fa0000000600b4
:00000001FF
