:020000040000fa
:080000000002040000000000f2
:020000040000fa
:04000800fa020000f8
:020000040000fa
:04000c00fa020000f4
:020000040000fa
:04001000fa020000f0
:020000040000fa
:04001400fa020000ec
:020000040000fa
:04001800fa020000e8
:020000040000fa
:04001c00fa020000e4
:020000040000fa
:04002000fa020000e0
:020000040000fa
:04002400fa020000dc
:020000040000fa
:04002800fa020000d8
:020000040000fa
:04002c00fa020000d4
:020000040000fa
:04003000fa020000d0
:020000040000fa
:04003400fa020000cc
:020000040000fa
:04003800fa020000c8
:020000040000fa
:04003c00fa020000c4
:020000040000fa
:04004000fa020000c0
:020000040000fa
:04004400fa020000bc
:020000040000fa
:04004800fa020000b8
:020000040000fa
:04004c00fa020000b4
:020000040000fa
:04005000fa020000b0
:020000040000fa
:04005400fa020000ac
:020000040000fa
:04005800fa020000a8
:020000040000fa
:04005c00fa020000a4
:020000040000fa
:04006000fa020000a0
:020000040000fa
:04006400fa0200009c
:020000040000fa
:04006800fa02000098
:020000040000fa
:04006c00fa02000094
:020000040000fa
:04007000fa02000090
:020000040000fa
:04007400fa0200008c
:020000040000fa
:04007800fa02000088
:020000040000fa
:04007c00fa02000084
:020000040000fa
:04008000fa02000080
:020000040000fa
:04008400fa0200007c
:020000040000fa
:04008800fa02000078
:020000040000fa
:04008c00fa02000074
:020000040000fa
:04009000fa02000070
:020000040000fa
:04009400fa0200006c
:020000040000fa
:04009800fa02000068
:020000040000fa
:04009c00fa02000064
:020000040000fa
:0400a000fa02000060
:020000040000fa
:0400a400fa0200005c
:020000040000fa
:0400a800fa02000058
:020000040000fa
:0400ac00fa02000054
:020000040000fa
:0400b000fa02000050
:020000040000fa
:0400b400fa0200004c
:020000040000fa
:0400b800fa02000048
:020000040000fa
:0400bc00fa02000044
:020000040000fa
:0400c000fa02000040
:020000040000fa
:0400c400fa0200003c
:020000040000fa
:0400c800fa02000038
:020000040000fa
:0400cc00fa02000034
:020000040000fa
:0400d000fa02000030
:020000040000fa
:0400d400fa0200002c
:020000040000fa
:0400d800fa02000028
:020000040000fa
:0400dc00fa02000024
:020000040000fa
:0400e000fa02000020
:020000040000fa
:0400e400fa0200001c
:020000040000fa
:0400e800fa02000018
:020000040000fa
:0400ec00fa02000014
:020000040000fa
:0400f000fa02000010
:020000040000fa
:0400f400fa0200000c
:020000040000fa
:0400f800fa02000008
:020000040000fa
:0400fc00fa02000004
:020000040000fa
:04010000fa020000ff
:020000040000fa
:04010400fa020000fb
:020000040000fa
:04010800fa020000f7
:020000040000fa
:04010c00fa020000f3
:020000040000fa
:04011000fa020000ef
:020000040000fa
:04011400fa020000eb
:020000040000fa
:04011800fa020000e7
:020000040000fa
:04011c00fa020000e3
:020000040000fa
:04012000fa020000df
:020000040000fa
:04012400fa020000db
:020000040000fa
:04012800fa020000d7
:020000040000fa
:04012c00fa020000d3
:020000040000fa
:04013000fa020000cf
:020000040000fa
:04013400fa020000cb
:020000040000fa
:04013800fa020000c7
:020000040000fa
:04013c00fa020000c3
:020000040000fa
:04014000fa020000bf
:020000040000fa
:04014400fa020000bb
:020000040000fa
:04014800fa020000b7
:020000040000fa
:04014c00fa020000b3
:020000040000fa
:04015000fa020000af
:020000040000fa
:04015400fa020000ab
:020000040000fa
:04015800fa020000a7
:020000040000fa
:04015c00fa020000a3
:020000040000fa
:04016000fa0200009f
:020000040000fa
:04016400fa0200009b
:020000040000fa
:04016800fa02000097
:020000040000fa
:04016c00fa02000093
:020000040000fa
:04017000fa0200008f
:020000040000fa
:04017400fa0200008b
:020000040000fa
:04017800fa02000087
:020000040000fa
:04017c00fa02000083
:020000040000fa
:04018000fa0200007f
:020000040000fa
:04018400fa0200007b
:020000040000fa
:04018800fa02000077
:020000040000fa
:04018c00fa02000073
:020000040000fa
:04019000fa0200006f
:020000040000fa
:04019400fa0200006b
:020000040000fa
:04019800fa02000067
:020000040000fa
:04019c00fa02000063
:020000040000fa
:0401a000fa0200005f
:020000040000fa
:0401a400fa0200005b
:020000040000fa
:0401a800fa02000057
:020000040000fa
:0401ac00fa02000053
:020000040000fa
:0401b000fa0200004f
:020000040000fa
:0401b400fa0200004b
:020000040000fa
:0401b800fa02000047
:020000040000fa
:0401bc00fa02000043
:020000040000fa
:0401c000fa0200003f
:020000040000fa
:0401c400fa0200003b
:020000040000fa
:0401c800fa02000037
:020000040000fa
:0401cc00fa02000033
:020000040000fa
:0401d000fa0200002f
:020000040000fa
:0401d400fa0200002b
:020000040000fa
:0401d800fa02000027
:020000040000fa
:0401dc00fa02000023
:020000040000fa
:0401e000fa0200001f
:020000040000fa
:0401e400fa0200001b
:020000040000fa
:0401e800fa02000017
:020000040000fa
:0401ec00fa02000013
:020000040000fa
:0401f000fa0200000f
:020000040000fa
:0401f400fa0200000b
:020000040000fa
:0401f800fa02000007
:020000040000fa
:0401fc00fa02000003
:020000040000fa
:04020000fa020000fe
:020000040000fa
:04020400fa020000fa
:020000040000fa
:04020800fa020000f6
:020000040000fa
:04020c00fa020000f2
:020000040000fa
:04021000fa020000ee
:020000040000fa
:04021400fa020000ea
:020000040000fa
:04021800fa020000e6
:020000040000fa
:04021c00fa020000e2
:020000040000fa
:04022000fa020000de
:020000040000fa
:04022400fa020000da
:020000040000fa
:04022800fa020000d6
:020000040000fa
:04022c00fa020000d2
:020000040000fa
:04023000fa020000ce
:020000040000fa
:04023400fa020000ca
:020000040000fa
:04023800fa020000c6
:020000040000fa
:04023c00fa020000c2
:020000040000fa
:04024000fa020000be
:020000040000fa
:04024400fa020000ba
:020000040000fa
:04024800fa020000b6
:020000040000fa
:04024c00fa020000b2
:020000040000fa
:04025000fa020000ae
:020000040000fa
:04025400fa020000aa
:020000040000fa
:04025800fa020000a6
:020000040000fa
:04025c00fa020000a2
:020000040000fa
:04026000fa0200009e
:020000040000fa
:04026400fa0200009a
:020000040000fa
:100400000f0021000eff2d000e01880000000000eb
:10041000000020000000e000020032000001200087
:100420002002880014000700740007000000e000ac
:1004300003003a0000002000010020000200370005
:100440000000200001002000810f70000100320038
:100450000f000700000020000000e0000200320052
:100460000000020000000000600702000000000021
:100470000040da000000fe00200020000000e00044
:1004800002003200100020009001880000000600e9
:10049000a1028800800478000000eb001f003700f4
:1004a000e284440054a0b4009905ba00e2844400f8
:1004b00054a0b4009906ba00e284440054a0b400e9
:1004c0000006eb00476fde00fd07b200ae018800ba
:1004d000636ce10003003a000ad801000000eb0061
:1004e0000e003700606ce10008003a00004deb00a0
:1004f0000a05e800020039003420ec000af0a000f0
:100500008b05e900f9ff3e00040037006168e10057
:10051000010032000086eb000b00070019c7ba008b
:100520000e04e0001905ba0003003a000a00e000da
:10053000dbff3a0000000600fe07b200ae028800b2
:100540008a047800f5ff37000cd0a300e20f4d00bd
:100550001c003b0089027800354dba000a05e8000e
:10056000020039003420ec000af0a0008b05e900fd
:100570000f003200254dba000a05e80002003900dc
:100580003420ec000af0a0008b05e90008003200de
:100590000c00e0000600320015cdba000a05e800a4
:1005a000020039003420ec000af0a0008b05e900bd
:1005b0008984e80054a0b4000b00e000e2ff3a0098
:1005c000000006009902ba00055d78008b05e9007d
:1005d000f7ff3200c82ade00055d78008b05e900d0
:1005e000f3ff32000c00e000f1ff320019ddba0029
:1005f000eeff37000040da000000fe0000000500ba
:020000040000fa
:100600000400fa00004f7800114798002247980034
:100610002e409000e14f50005a003a001e80fb002f
:10062000e30f50002e003200e30f500007003c00a3
:10063000e10f500016003200e10f50001e003c0098
:100640000000e00008003200a0003700e50f500075
:1006500037003200e50f50002b003500e60f500048
:100660003e003200990037001e4090000080fb00e1
:10067000110020000008dd000080ea008000780002
:100680000070800000806000007088008f003700dc
:100690001e4090000080fb00110020000008dd00db
:1006a0000080ea0080007800807080000080600098
:1006b00080708800850037001e4090000080fb009d
:1006c000110020000008dd000080ea0080007800b2
:1006d0000071800000806000007188007b0037009e
:1006e0001e4090000080fb00110020000008dd008b
:1006f0000080ea0080007800807180000080600047
:1007000080718800710037001e4090000080fb005f
:10071000110020000008dd000080ea008000780061
:10072000007280000080600000728800670037005f
:100730001e4090000080fb00110020000008dd003a
:100740000080ea00800078008072800000806000f5
:1007500080728800000000005c0037001e4090009e
:100760000080fb00110020000008dd000080ea008e
:1007700080007800007380000080600000738800b3
:10078000520037001e80fb00e30f50002b003200a8
:10079000e30f500007003c00e10f5000150032004d
:1007a000e10f50001c003c000000e0000800320097
:1007b00046003700e50f500032003200e50f5000d0
:1007c00027003500e60f5000370032003f003700a9
:1007d0001e4090000080fb00110020000008dd009a
:1007e00080007800007080000100700000708800b8
:1007f000360037001e4090000080fb0011002000f2
:100800000008dd008000780080708000010070002a
:10081000807088002d0037001e4090000080fb0093
:10082000110020000008dd008000780000718000c9
:100830000100700000718800240037001e40900005
:100840000080fb00110020000008dd00800078001f
:100850008071800001007000807188001b003700eb
:100860001e4090000080fb00110020000008dd0009
:100870008000780000728000010070000072880023
:10088000120037001e4090000080fb001100200085
:100890000008dd0080007800807280000100700098
:1008a00080728800090037001e4090000080fb0025
:1008b000110020000008dd00800078000073800037
:1008c0000100700000738800000000000080fa0042
:1008d000000006000400fa00004f7800114798005d
:1008e000224798002e4090000004e00053003200a0
:1008f0001e80fb00e30f50002b003200e30f50007e
:1009000007003c00e10f500015003200e10f5000dd
:100910001c003c000000e00008003200a00037008e
:10092000e50f500032003200e50f5000270035007f
:10093000e60f500038003200990037001e4090004a
:100940000080fb00110020000008dd00800078001e
:100950002070800001007000207088009000370037
:100960001e4090000080fb00110020000008dd0008
:1009700080007800a070800001007000a0708800e6
:10098000870037001e4090000080fb00110020000f
:100990000008dd00800078002071800001007000f8
:1009a000207188007e0037001e4090000080fb0010
:1009b000110020000008dd0080007800a071800098
:1009c00001007000a0718800750037001e40900083
:1009d0000080fb00110020000008dd00800078008e
:1009e0002072800001007000207288006c003700c7
:1009f0001e4090000080fb00110020000008dd0078
:100a000080007800a072800001007000a072880051
:100a100000000000620037001e4090000080fb00d4
:100a2000110020000008dd008000780020738000a5
:100a30000100700020738800590037001e80fb0001
:100a4000e30f50002e003200e30f500007003c007f
:100a5000e10f500016003200e10f50001e003c0074
:100a60000000e000080032004d003700e50f5000a4
:100a700037003200e50f50002b003500e60f500024
:100a80003d003200460037001e4090000080fb0011
:100a9000110020000008dd000080ea0080007800de
:100aa0002070800000806000207088003c003700cb
:100ab0001e4090000080fb00110020000008dd00b7
:100ac0000080ea0080007800a07080000080600054
:100ad000a0708800320037001e4090000080fb00ac
:100ae000110020000008dd000080ea00800078008e
:100af000207180000080600020718800280037008d
:100b00001e4090000080fb00110020000008dd0066
:100b10000080ea0080007800a07180000080600002
:100b2000a07188001e0037001e4090000080fb006e
:100b3000110020000008dd000080ea00800078003d
:100b4000207280000080600020728800140037004e
:100b50001e4090000080fb00110020000008dd0016
:100b60000080ea0080007800a072800000806000b1
:100b7000a07288000a0037001e4090000080fb0031
:100b8000110020000008dd000080ea0080007800ed
:100b90002073800000806000207388000000000047
:100ba0000080fa00000006000200fa00004f780002
:100bb000114798001e80fb00e30f50002500320013
:100bc000e30f500007003c00e10f5000130032001b
:100bd000e10f500018003c000000e0000800320067
:100be00038003700e50f500028003200e50f5000b4
:100bf0001f003500e60f50002b0032003100370097
:100c0000117080001e4090000080fb000008de0094
:100c100000407800614060002b0037009170800038
:100c20001e4090000080fb000008de0000407800bd
:100c30006140600024003700117180001e40900068
:100c40000080fb000008de0000407800614060008a
:100c50001d003700917180001e4090000080fb0055
:100c60000008de0000407800614060001600370098
:100c7000117280001e4090000080fb000008de0022
:100c800000407800614060000f00370091728000e2
:100c90001e4090000080fb000008de00004078004d
:100ca0006140600008003700117380001e40900012
:100cb0000080fb000008de0000407800614060001a
:100cc000010037000040eb000080fa000000060041
:100cd0000200fa00004f7800114798001e80fb00c8
:100ce000e30f50002b003200e30f500007003c00e0
:100cf000e10f500015003200e10f50001c003c00d5
:100d00000000e0000800320046003700e50f500008
:100d100032003200e50f500027003500e60f50008a
:100d2000370032003f0037001e4090000080fb007b
:100d3000110020000008dd00800078002070800095
:100d40000080680020708800360037001e40900048
:100d50000080fb00110020000008dd00800078000a
:100d6000a070800000806800a07088002d0037000f
:100d70001e4090000080fb00110020000008dd00f4
:100d80008000780020718000008068002071880059
:100d9000240037001e4090000080fb00110020005e
:100da0000008dd0080007800a071800000806800ed
:100db000a07188001b0037001e4090000080fb00df
:100dc000110020000008dd00800078002072800003
:100dd0000080680020728800120037001e409000da
:100de0000080fb00110020000008dd00800078007a
:100df000a072800000806800a0728800090037009f
:100e00001e4090000080fb00110020000008dd0063
:100e100080007800207380000080680020738800c4
:100e2000000000000080fa00000006000c00fa003c
:100e300040079800510798006000b800008fbe007e
:100e4000160037006000b8002007980031079800ae
:100e5000060037002e009000be00900061004000a8
:100e6000e080480020079800310798002e0190008c
:100e7000be0190007025200001002000800f51006d
:100e8000818f5900f3ff36001e0078009e0090000d
:100e900061004000e0804800008fbe001e01780025
:100ea0009e0190004e009000de009000800f5100e7
:100eb000818f5900e3ff39000080fa00000006002e
:100ec0000200fa006e2eef007073800070728800ce
:100ed00070728000f0718800f0718000707188007d
:100ee00070718000f0708800f07080007070880071
:100ef00012c0b3008040eb000040eb00c0fd0700d3
:100f00000041eb0091c0b30040c0b300bcfd07003e
:100f10000041eb008040eb000040eb006dfe07005d
:100f200091c0b30040c0b3001fff0700004f78001e
:100f30001e4078000004e00005003a0012c0b30033
:100f40008040eb000040eb0062fe07000400370029
:100f50000041eb008040eb000040eb005dfe07002d
:100f60002003200001002000b0ff0700ecff370045
:00000001FF
